{
  "transactions": [
    {
      "hash": "0x0759203b61801e63c95dd8e84b55b6c8df66d4783acd38922cc21d3cead0ef08",
      "transactionType": "CALL",
      "contractName": null,
      "contractAddress": "0x4FD97d5E290979bEA948684D12EC14aA08835CaB",
      "function": "claim(address,uint256,bytes32[],uint8,bytes32,bytes32)",
      "arguments": [
        "0x701477467321474712bACA6779FE8926528B3c93",
        "25000000000000000000",
        "[0xe876e703ac9dff4b8fb7416f3c78532786b7a80f536386df64c64a9191fa5406, 0x81f0e530b56872b6fc3e10f8873804230663f8407e21cef901b8aeb06a25e5e2]",
        "28",
        "0x94132d5e64c585f8759af1ca4a3495199015524592898c38a377dc9ba642c43f",
        "0x4511753c0212474d1b034eeb26d4e0200fa22aea8161271df807f743be8976bb"
      ],
      "transaction": {
        "from": "0x264F7948c23da2233D3458F1B4e2554f0e56c9Ca",
        "to": "0x4FD97d5E290979bEA948684D12EC14aA08835CaB",
        "gas": "0x1efbf",
        "value": "0x0",
        "input": "0x4497a169000000000000000000000000701477467321474712baca6779fe8926528b3c930000000000000000000000000000000000000000000000015af1d78b58c4000000000000000000000000000000000000000000000000000000000000000000c0000000000000000000000000000000000000000000000000000000000000001c94132d5e64c585f8759af1ca4a3495199015524592898c38a377dc9ba642c43f4511753c0212474d1b034eeb26d4e0200fa22aea8161271df807f743be8976bb0000000000000000000000000000000000000000000000000000000000000002e876e703ac9dff4b8fb7416f3c78532786b7a80f536386df64c64a9191fa540681f0e530b56872b6fc3e10f8873804230663f8407e21cef901b8aeb06a25e5e2",
        "nonce": "0x30",
        "chainId": "0xaa36a7"
      },
      "additionalContracts": [],
      "isFixedGasLimit": false
    }
  ],
  "receipts": [
    {
      "status": "0x1",
      "cumulativeGasUsed": "0xc98b77",
      "logs": [
        {
          "address": "0x4FD97d5E290979bEA948684D12EC14aA08835CaB",
          "topics": [
            "0x47cee97cb7acd717b3c0aa1435d004cd5b3c8c57d70dbceb4e4458bbd60e39d4"
          ],
          "data": "0x000000000000000000000000701477467321474712baca6779fe8926528b3c930000000000000000000000000000000000000000000000015af1d78b58c40000",
          "blockHash": "0x65786d58e652cb71453c746d3537c584e3e0306d7198baab11bee6192bf576b5",
          "blockNumber": "0x6880f0",
          "transactionHash": "0x0759203b61801e63c95dd8e84b55b6c8df66d4783acd38922cc21d3cead0ef08",
          "transactionIndex": "0x7e",
          "logIndex": "0x91",
          "removed": false
        },
        {
          "address": "0x22D6ddb2Cf99A815F7801EfB413f5074d4529EE6",
          "topics": [
            "0xddf252ad1be2c89b69c2b068fc378daa952ba7f163c4a11628f55a4df523b3ef",
            "0x0000000000000000000000004fd97d5e290979bea948684d12ec14aa08835cab",
            "0x000000000000000000000000701477467321474712baca6779fe8926528b3c93"
          ],
          "data": "0x0000000000000000000000000000000000000000000000015af1d78b58c40000",
          "blockHash": "0x65786d58e652cb71453c746d3537c584e3e0306d7198baab11bee6192bf576b5",
          "blockNumber": "0x6880f0",
          "transactionHash": "0x0759203b61801e63c95dd8e84b55b6c8df66d4783acd38922cc21d3cead0ef08",
          "transactionIndex": "0x7e",
          "logIndex": "0x92",
          "removed": false
        }
      ],
      "logsBloom": "0x00000000000000000000000000000000000000000000000000000000000000000000000001000000000000020000000000000010000200000100100000008000000000000000000000000008000000000000000000000000000000000000000000000000000000000000000000000000001000000000000000000010000000000000000000080000000000000000000000000000002000000000000000000000000000000000000000000020000000000000000000020000000000000000000000000106000000000000000000000000000002000000000000000000000000000000000000000000000000000000000000000000000000000000000000000000",
      "type": "0x2",
      "transactionHash": "0x0759203b61801e63c95dd8e84b55b6c8df66d4783acd38922cc21d3cead0ef08",
      "transactionIndex": "0x7e",
      "blockHash": "0x65786d58e652cb71453c746d3537c584e3e0306d7198baab11bee6192bf576b5",
      "blockNumber": "0x6880f0",
      "gasUsed": "0x152f9",
      "effectiveGasPrice": "0x7a33c",
      "from": "0x264F7948c23da2233D3458F1B4e2554f0e56c9Ca",
      "to": "0x4FD97d5E290979bEA948684D12EC14aA08835CaB",
      "contractAddress": null
    }
  ],
  "libraries": [],
  "pending": [],
  "returns": {},
  "timestamp": 1728541721,
  "chain": 11155111,
  "commit": "6ec0925"
}